{
  "address": "0x71C95911E9a5D330f4D621842EC243EE1343292e",
  "abi": [
    {
      "inputs": [
        {
          "internalType": "address",
          "name": "priceFeedAddress",
          "type": "address"
        }
      ],
      "stateMutability": "nonpayable",
      "type": "constructor"
    },
    {
      "inputs": [],
      "name": "NotOwner",
      "type": "error"
    },
    {
      "stateMutability": "payable",
      "type": "fallback"
    },
    {
      "inputs": [],
      "name": "MIN_USD",
      "outputs": [
        {
          "internalType": "uint256",
          "name": "",
          "type": "uint256"
        }
      ],
      "stateMutability": "view",
      "type": "function"
    },
    {
      "inputs": [],
      "name": "fund",
      "outputs": [],
      "stateMutability": "payable",
      "type": "function"
    },
    {
      "inputs": [],
      "name": "withdraw",
      "outputs": [],
      "stateMutability": "nonpayable",
      "type": "function"
    },
    {
      "stateMutability": "payable",
      "type": "receive"
    }
  ],
  "transactionHash": "0xf2c5fecdc0e2d2116681c5400a7ebc0834890bf7ff6aea0d7760f90984f2a742",
  "args": [
    "0x8464135c8F25Da09e49BC8782676a84730C318bC"
  ],
  "numDeployments": 1,
  "solcInputHash": "37af07fab4aff279716a6ad0c9f847c1",
  "bytecode": "0x60a060405234801561001057600080fd5b50604051610e51380380610e5183398181016040528101906100329190610110565b80600260006101000a81548173ffffffffffffffffffffffffffffffffffffffff021916908373ffffffffffffffffffffffffffffffffffffffff1602179055503373ffffffffffffffffffffffffffffffffffffffff1660808173ffffffffffffffffffffffffffffffffffffffff16815250505061013d565b600080fd5b600073ffffffffffffffffffffffffffffffffffffffff82169050919050565b60006100dd826100b2565b9050919050565b6100ed816100d2565b81146100f857600080fd5b50565b60008151905061010a816100e4565b92915050565b600060208284031215610126576101256100ad565b5b6000610134848285016100fb565b91505092915050565b608051610cf261015f600039600081816101e7015261047b0152610cf26000f3fe6080604052600436106100385760003560e01c8063213dbea2146100515780633ccfd60b1461007c578063b60d42881461009357610047565b366100475761004561009d565b005b61004f61009d565b005b34801561005d57600080fd5b506100666101d8565b604051610073919061071e565b60405180910390f35b34801561008857600080fd5b506100916101e5565b005b61009b61009d565b005b6802b5e3af16b18800006100dc600260009054906101000a900473ffffffffffffffffffffffffffffffffffffffff16346104d790919063ffffffff16565b101561011d576040517f08c379a000000000000000000000000000000000000000000000000000000000815260040161011490610796565b60405180910390fd5b6000339080600181540180825580915050600190039060005260206000200160009091909190916101000a81548173ffffffffffffffffffffffffffffffffffffffff021916908373ffffffffffffffffffffffffffffffffffffffff16021790555034600160003373ffffffffffffffffffffffffffffffffffffffff1673ffffffffffffffffffffffffffffffffffffffff16815260200190815260200160002060008282546101cf91906107e5565b92505081905550565b6802b5e3af16b188000081565b7f000000000000000000000000000000000000000000000000000000000000000073ffffffffffffffffffffffffffffffffffffffff163373ffffffffffffffffffffffffffffffffffffffff1614610273576040517f08c379a000000000000000000000000000000000000000000000000000000000815260040161026a90610865565b60405180910390fd5b6102b16040518060400160405280601d81526020017f546869732069732061207769746864726177616c2066756e6374696f6e000000815250610513565b60008080549050116102f8576040517f08c379a00000000000000000000000000000000000000000000000000000000081526004016102ef906108d1565b60405180910390fd5b60005b6000805490508110156103a357600080828154811061031d5761031c6108f1565b5b9060005260206000200160009054906101000a900473ffffffffffffffffffffffffffffffffffffffff1690506000600160008373ffffffffffffffffffffffffffffffffffffffff1673ffffffffffffffffffffffffffffffffffffffff1681526020019081526020016000208190555050808061039b90610920565b9150506102fb565b50600067ffffffffffffffff8111156103bf576103be610968565b5b6040519080825280602002602001820160405280156103ed5781602001602082028036833780820191505090505b506000908051906020019061040392919061065e565b5060003373ffffffffffffffffffffffffffffffffffffffff164760405161042a906109c8565b60006040518083038185875af1925050503d8060008114610467576040519150601f19603f3d011682016040523d82523d6000602084013e61046c565b606091505b50509050801580156104ca57507f000000000000000000000000000000000000000000000000000000000000000073ffffffffffffffffffffffffffffffffffffffff163373ffffffffffffffffffffffffffffffffffffffff1614155b156104d457600080fd5b50565b6000806104e3836105ac565b90506000670de0b6b3a764000085836104fc91906109dd565b6105069190610a4e565b9050809250505092915050565b6105a9816040516024016105279190610afe565b6040516020818303038152906040527f41304fac000000000000000000000000000000000000000000000000000000007bffffffffffffffffffffffffffffffffffffffffffffffffffffffff19166020820180517bffffffffffffffffffffffffffffffffffffffffffffffffffffffff838183161783525050505061063d565b50565b6000808273ffffffffffffffffffffffffffffffffffffffff1663feaf968c6040518163ffffffff1660e01b815260040160a060405180830381865afa1580156105fa573d6000803e3d6000fd5b505050506040513d601f19601f8201168201806040525081019061061e9190610bc9565b5050509150506402540be400816106359190610c44565b915050919050565b60006a636f6e736f6c652e6c6f679050600080835160208501845afa505050565b8280548282559060005260206000209081019282156106d7579160200282015b828111156106d65782518260006101000a81548173ffffffffffffffffffffffffffffffffffffffff021916908373ffffffffffffffffffffffffffffffffffffffff1602179055509160200191906001019061067e565b5b5090506106e491906106e8565b5090565b5b808211156107015760008160009055506001016106e9565b5090565b6000819050919050565b61071881610705565b82525050565b6000602082019050610733600083018461070f565b92915050565b600082825260208201905092915050565b7f4554482066756e64696e6720616d6f756e742065786365656465640000000000600082015250565b6000610780601b83610739565b915061078b8261074a565b602082019050919050565b600060208201905081810360008301526107af81610773565b9050919050565b7f4e487b7100000000000000000000000000000000000000000000000000000000600052601160045260246000fd5b60006107f082610705565b91506107fb83610705565b9250828201905080821115610813576108126107b6565b5b92915050565b7f4e6f74206f776e65720000000000000000000000000000000000000000000000600082015250565b600061084f600983610739565b915061085a82610819565b602082019050919050565b6000602082019050818103600083015261087e81610842565b9050919050565b7f4e6f2066756e6465727320746f2077697468647261772066726f6d0000000000600082015250565b60006108bb601b83610739565b91506108c682610885565b602082019050919050565b600060208201905081810360008301526108ea816108ae565b9050919050565b7f4e487b7100000000000000000000000000000000000000000000000000000000600052603260045260246000fd5b600061092b82610705565b91507fffffffffffffffffffffffffffffffffffffffffffffffffffffffffffffffff820361095d5761095c6107b6565b5b600182019050919050565b7f4e487b7100000000000000000000000000000000000000000000000000000000600052604160045260246000fd5b600081905092915050565b50565b60006109b2600083610997565b91506109bd826109a2565b600082019050919050565b60006109d3826109a5565b9150819050919050565b60006109e882610705565b91506109f383610705565b9250828202610a0181610705565b91508282048414831517610a1857610a176107b6565b5b5092915050565b7f4e487b7100000000000000000000000000000000000000000000000000000000600052601260045260246000fd5b6000610a5982610705565b9150610a6483610705565b925082610a7457610a73610a1f565b5b828204905092915050565b600081519050919050565b60005b83811015610aa8578082015181840152602081019050610a8d565b60008484015250505050565b6000601f19601f8301169050919050565b6000610ad082610a7f565b610ada8185610739565b9350610aea818560208601610a8a565b610af381610ab4565b840191505092915050565b60006020820190508181036000830152610b188184610ac5565b905092915050565b600080fd5b600069ffffffffffffffffffff82169050919050565b610b4481610b25565b8114610b4f57600080fd5b50565b600081519050610b6181610b3b565b92915050565b6000819050919050565b610b7a81610b67565b8114610b8557600080fd5b50565b600081519050610b9781610b71565b92915050565b610ba681610705565b8114610bb157600080fd5b50565b600081519050610bc381610b9d565b92915050565b600080600080600060a08688031215610be557610be4610b20565b5b6000610bf388828901610b52565b9550506020610c0488828901610b88565b9450506040610c1588828901610bb4565b9350506060610c2688828901610bb4565b9250506080610c3788828901610b52565b9150509295509295909350565b6000610c4f82610b67565b9150610c5a83610b67565b9250828202610c6881610b67565b91507f80000000000000000000000000000000000000000000000000000000000000008414600084121615610ca057610c9f6107b6565b5b8282058414831517610cb557610cb46107b6565b5b509291505056fea2646970667358221220f3daf7c308bae4af8528777f6cadef23111f7dffe0896ce43a696c198d60d08164736f6c63430008120033",
  "devdoc": {
    "author": "Olorunfemi Tayo",
    "details": "This implements price feed as our library",
    "kind": "dev",
    "methods": {
      "fund()": {
        "details": "This implements price feed as our library"
      }
    },
    "title": "A contract for Crowd Funding",
    "version": 1
  },
  "userdoc": {
    "kind": "user",
    "methods": {
      "fund()": {
        "notice": "This function funds the contract"
      }
    },
    "notice": "This contract is to demo a sample funding project",
    "version": 1
  },
  "storageLayout": {
    "storage": [
      {
        "astId": 62,
        "contract": "contracts/FundMe.sol:FundMe",
        "label": "s_funders",
        "offset": 0,
        "slot": "0",
        "type": "t_array(t_address)dyn_storage"
      },
      {
        "astId": 66,
        "contract": "contracts/FundMe.sol:FundMe",
        "label": "s_addressToAmountFunded",
        "offset": 0,
        "slot": "1",
        "type": "t_mapping(t_address,t_uint256)"
      },
      {
        "astId": 73,
        "contract": "contracts/FundMe.sol:FundMe",
        "label": "s_priceFeed",
        "offset": 0,
        "slot": "2",
        "type": "t_contract(AggregatorV3Interface)45"
      }
    ],
    "types": {
      "t_address": {
        "encoding": "inplace",
        "label": "address",
        "numberOfBytes": "20"
      },
      "t_array(t_address)dyn_storage": {
        "base": "t_address",
        "encoding": "dynamic_array",
        "label": "address[]",
        "numberOfBytes": "32"
      },
      "t_contract(AggregatorV3Interface)45": {
        "encoding": "inplace",
        "label": "contract AggregatorV3Interface",
        "numberOfBytes": "20"
      },
      "t_mapping(t_address,t_uint256)": {
        "encoding": "mapping",
        "key": "t_address",
        "label": "mapping(address => uint256)",
        "numberOfBytes": "32",
        "value": "t_uint256"
      },
      "t_uint256": {
        "encoding": "inplace",
        "label": "uint256",
        "numberOfBytes": "32"
      }
    }
  }
}